{
  "transactions": [
    {
      "hash": "0x43080a1560206c2fc21241aaca207ebf27e817fafb626dc8dbec34b2711b1693",
      "transactionType": "CALL",
      "contractName": null,
      "contractAddress": "0x5468cf7f578f56daaf3119128e00fd223b9204bb",
      "function": "mint(address)",
      "arguments": [
        "0xA08233e57c8D2a4c4a12bdBd4BA42A5D90F22e54"
      ],
      "transaction": {
        "from": "0xa08233e57c8d2a4c4a12bdbd4ba42a5d90f22e54",
        "to": "0x5468cf7f578f56daaf3119128e00fd223b9204bb",
        "gas": "0x1fa3a",
        "value": "0x0",
        "input": "0x6a627842000000000000000000000000a08233e57c8d2a4c4a12bdbd4ba42a5d90f22e54",
        "nonce": "0x3",
        "chainId": "0xaa36a7"
      },
      "additionalContracts": [],
      "isFixedGasLimit": false
    }
  ],
  "receipts": [
    {
      "type": "0x2",
      "status": "0x1",
      "cumulativeGasUsed": "0x17b29dd",
      "logs": [
        {
          "address": "0x5468cf7f578f56daaf3119128e00fd223b9204bb",
          "topics": [
            "0xddf252ad1be2c89b69c2b068fc378daa952ba7f163c4a11628f55a4df523b3ef",
            "0x0000000000000000000000000000000000000000000000000000000000000000",
            "0x000000000000000000000000a08233e57c8d2a4c4a12bdbd4ba42a5d90f22e54",
            "0x0000000000000000000000000000000000000000000000000000000000000001"
          ],
          "data": "0x",
          "blockHash": "0x4283951c9d094d26a358aa94ff7d174938f317c9ddb80c542a300db985ec2515",
          "blockNumber": "0xaa35ac",
          "blockTimestamp": "0x6a407264",
          "transactionHash": "0x43080a1560206c2fc21241aaca207ebf27e817fafb626dc8dbec34b2711b1693",
          "transactionIndex": "0x9b",
          "logIndex": "0x494",
          "removed": false
        }
      ],
      "logsBloom": "0x00010000000000002000000000000000000000000000000000000000000000000000000000000000000000000000000000000000000000000000000000040000000000000000000400000008000000000000000000040000000000000000000000000000020000000000000000000800000000000000000000000010000000000000004000000000000000000000000000000000000400000000000000000000000000000000000000000000000000000000000000000000000000000000000000000002000000000000000000004000000000000000000000000000000060000000000000000000000000000000000000000000000000000000000000000000",
      "transactionHash": "0x43080a1560206c2fc21241aaca207ebf27e817fafb626dc8dbec34b2711b1693",
      "transactionIndex": "0x9b",
      "blockHash": "0x4283951c9d094d26a358aa94ff7d174938f317c9ddb80c542a300db985ec2515",
      "blockNumber": "0xaa35ac",
      "gasUsed": "0x16e80",
      "effectiveGasPrice": "0xd440ca65",
      "from": "0xa08233e57c8d2a4c4a12bdbd4ba42a5d90f22e54",
      "to": "0x5468cf7f578f56daaf3119128e00fd223b9204bb",
      "contractAddress": null
    }
  ],
  "libraries": [],
  "pending": [],
  "returns": {},
  "timestamp": 1782608485476,
  "chain": 11155111,
  "commit": "9c0c35a"
}